{
  "address": "0xDC65C14bDe159e88337c7918A783A296c8c507fc",
  "abi": [
    {
      "inputs": [],
      "stateMutability": "payable",
      "type": "constructor"
    },
    {
      "inputs": [
        {
          "internalType": "bytes32",
          "name": "h",
          "type": "bytes32"
        },
        {
          "internalType": "uint8",
          "name": "v",
          "type": "uint8"
        },
        {
          "internalType": "bytes32",
          "name": "r",
          "type": "bytes32"
        },
        {
          "internalType": "bytes32",
          "name": "s",
          "type": "bytes32"
        }
      ],
      "name": "_recoverSigner2",
      "outputs": [
        {
          "internalType": "address",
          "name": "",
          "type": "address"
        }
      ],
      "stateMutability": "pure",
      "type": "function"
    },
    {
      "inputs": [],
      "name": "getAbiterList",
      "outputs": [
        {
          "internalType": "bytes[]",
          "name": "",
          "type": "bytes[]"
        }
      ],
      "stateMutability": "view",
      "type": "function"
    },
    {
      "inputs": [],
      "name": "owner",
      "outputs": [
        {
          "internalType": "address",
          "name": "",
          "type": "address"
        }
      ],
      "stateMutability": "view",
      "type": "function"
    },
    {
      "inputs": [
        {
          "internalType": "address",
          "name": "_to",
          "type": "address"
        },
        {
          "internalType": "uint256",
          "name": "_amount",
          "type": "uint256"
        }
      ],
      "name": "sendViaTransfer",
      "outputs": [],
      "stateMutability": "nonpayable",
      "type": "function"
    },
    {
      "inputs": [
        {
          "internalType": "bytes[]",
          "name": "_pubKeyList",
          "type": "bytes[]"
        },
        {
          "internalType": "bytes32",
          "name": "hash",
          "type": "bytes32"
        },
        {
          "internalType": "bytes[]",
          "name": "sig",
          "type": "bytes[]"
        },
        {
          "internalType": "address[]",
          "name": "signer",
          "type": "address[]"
        }
      ],
      "name": "setAbiterList",
      "outputs": [],
      "stateMutability": "nonpayable",
      "type": "function"
    },
    {
      "inputs": [
        {
          "internalType": "address[]",
          "name": "to",
          "type": "address[]"
        },
        {
          "internalType": "uint256[]",
          "name": "value",
          "type": "uint256[]"
        },
        {
          "internalType": "bytes32",
          "name": "hash",
          "type": "bytes32"
        },
        {
          "internalType": "bytes[]",
          "name": "sig",
          "type": "bytes[]"
        },
        {
          "internalType": "address[]",
          "name": "signer",
          "type": "address[]"
        }
      ],
      "name": "withDraw",
      "outputs": [],
      "stateMutability": "nonpayable",
      "type": "function"
    },
    {
      "stateMutability": "payable",
      "type": "receive"
    }
  ],
  "transactionHash": "0xeec5d1d19f6130d74c1027c5e3f092dffd02503065c22cf2d7c8a23d12987b56",
  "args": [],
  "solcInputHash": "406dcd152953f5f712afac95dd35fd0a",
  "bytecode": "0x6080604052336000806101000a81548173ffffffffffffffffffffffffffffffffffffffff021916908373ffffffffffffffffffffffffffffffffffffffff160217905550611367806100536000396000f3fe6080604052600436106100595760003560e01c80635fa211ff146100655780638da5cb5b1461008e5780638f667892146100b9578063d27f8e66146100f6578063ef4123ed1461011f578063f71d7a3d1461014857610060565b3661006057005b600080fd5b34801561007157600080fd5b5061008c60048036038101906100879190610c21565b610173565b005b34801561009a57600080fd5b506100a36101e0565b6040516100b09190610fcb565b60405180910390f35b3480156100c557600080fd5b506100e060048036038101906100db9190610ccc565b610204565b6040516100ed9190610fcb565b60405180910390f35b34801561010257600080fd5b5061011d60048036038101906101189190610b0e565b6102cd565b005b34801561012b57600080fd5b5061014660048036038101906101419190610b4a565b6102db565b005b34801561015457600080fd5b5061015d610382565b60405161016a9190610fe6565b60405180910390f35b600061018084848461046b565b9050806101c2576040517f08c379a00000000000000000000000000000000000000000000000000000000081526004016101b9906110ad565b60405180910390fd5b84600190805190602001906101d8929190610728565b505050505050565b60008054906101000a900473ffffffffffffffffffffffffffffffffffffffff1681565b6000806040518060400160405280601c81526020017f19457468657265756d205369676e6564204d6573736167653a0a333200000000815250905060008187604051602001610254929190610fa3565b6040516020818303038152906040528051906020012090506000600182888888604051600081526020016040526040516102919493929190611008565b6020604051602081039080840390855afa1580156102b3573d6000803e3d6000fd5b505050602060405103519050809350505050949350505050565b6102d78282610501565b5050565b60006102e884848461046b565b90508061032a576040517f08c379a0000000000000000000000000000000000000000000000000000000008152600401610321906110ad565b60405180910390fd5b60008651905060005b818110156103785761036b88828151811061034a57fe5b602002602001015188838151811061035e57fe5b6020026020010151610501565b8080600101915050610333565b5050505050505050565b60606001805480602002602001604051908101604052809291908181526020016000905b82821015610462578382906000526020600020018054600181600116156101000203166002900480601f01602080910402602001604051908101604052809291908181526020018280546001816001161561010002031660029004801561044e5780601f106104235761010080835404028352916020019161044e565b820191906000526020600020905b81548152906001019060200180831161043157829003601f168201915b5050505050815260200190600101906103a6565b50505050905090565b60008060009050600080600092505b60208360ff1610156104f2576104bd87878560ff168151811061049957fe5b6020026020010151878660ff16815181106104b057fe5b60200260200101516105ff565b905080156104ce5781806001019250505b60198260ff16106104e557600193505050506104fa565b828060010193505061047a565b600093505050505b9392505050565b60008273ffffffffffffffffffffffffffffffffffffffff1682600067ffffffffffffffff8111801561053357600080fd5b506040519080825280601f01601f1916602001820160405280156105665781602001600182028036833780820191505090505b506040516105749190610f8c565b60006040518083038185875af1925050503d80600081146105b1576040519150601f19603f3d011682016040523d82523d6000602084013e6105b6565b606091505b50509050806105fa576040517f08c379a00000000000000000000000000000000000000000000000000000000081526004016105f19061108d565b60405180910390fd5b505050565b60008061060c8585610647565b90508273ffffffffffffffffffffffffffffffffffffffff168173ffffffffffffffffffffffffffffffffffffffff16149150509392505050565b6000604182511461068d576040517f08c379a00000000000000000000000000000000000000000000000000000000081526004016106849061104d565b60405180910390fd5b60008060006020850151925060408501519150606085015160001a9050601b8160ff1610156106bd57601b810190505b601b8160ff1614806106d25750601c8160ff16145b610711576040517f08c379a00000000000000000000000000000000000000000000000000000000081526004016107089061106d565b60405180910390fd5b61071d86828585610204565b935050505092915050565b828054828255906000526020600020908101928215610777579160200282015b82811115610776578251829080519060200190610766929190610788565b5091602001919060010190610748565b5b5090506107849190610816565b5090565b828054600181600116156101000203166002900490600052602060002090601f0160209004810192826107be5760008555610805565b82601f106107d757805160ff1916838001178555610805565b82800160010185558215610805579182015b828111156108045782518255916020019190600101906107e9565b5b509050610812919061083a565b5090565b5b80821115610836576000818161082d9190610857565b50600101610817565b5090565b5b8082111561085357600081600090555060010161083b565b5090565b50805460018160011615610100020316600290046000825580601f1061087d575061089c565b601f01602090049060005260206000209081019061089b919061083a565b5b50565b60006108b26108ad846110fe565b6110cd565b905080838252602082019050828560208602820111156108d157600080fd5b60005b8581101561090157816108e78882610a12565b8452602084019350602083019250506001810190506108d4565b5050509392505050565b600061091e6109198461112a565b6110cd565b9050808382526020820190508260005b8581101561095e57813585016109448882610aba565b84526020840193506020830192505060018101905061092e565b5050509392505050565b600061097b61097684611156565b6110cd565b9050808382526020820190508285602086028201111561099a57600080fd5b60005b858110156109ca57816109b08882610ae4565b84526020840193506020830192505060018101905061099d565b5050509392505050565b60006109e76109e284611182565b6110cd565b9050828152602081018484840111156109ff57600080fd5b610a0a848285611276565b509392505050565b600081359050610a21816112d5565b92915050565b600082601f830112610a3857600080fd5b8135610a4884826020860161089f565b91505092915050565b600082601f830112610a6257600080fd5b8135610a7284826020860161090b565b91505092915050565b600082601f830112610a8c57600080fd5b8135610a9c848260208601610968565b91505092915050565b600081359050610ab4816112ec565b92915050565b600082601f830112610acb57600080fd5b8135610adb8482602086016109d4565b91505092915050565b600081359050610af381611303565b92915050565b600081359050610b088161131a565b92915050565b60008060408385031215610b2157600080fd5b6000610b2f85828601610a12565b9250506020610b4085828601610ae4565b9150509250929050565b600080600080600060a08688031215610b6257600080fd5b600086013567ffffffffffffffff811115610b7c57600080fd5b610b8888828901610a27565b955050602086013567ffffffffffffffff811115610ba557600080fd5b610bb188828901610a7b565b9450506040610bc288828901610aa5565b935050606086013567ffffffffffffffff811115610bdf57600080fd5b610beb88828901610a51565b925050608086013567ffffffffffffffff811115610c0857600080fd5b610c1488828901610a27565b9150509295509295909350565b60008060008060808587031215610c3757600080fd5b600085013567ffffffffffffffff811115610c5157600080fd5b610c5d87828801610a51565b9450506020610c6e87828801610aa5565b935050604085013567ffffffffffffffff811115610c8b57600080fd5b610c9787828801610a51565b925050606085013567ffffffffffffffff811115610cb457600080fd5b610cc087828801610a27565b91505092959194509250565b60008060008060808587031215610ce257600080fd5b6000610cf087828801610aa5565b9450506020610d0187828801610af9565b9350506040610d1287828801610aa5565b9250506060610d2387828801610aa5565b91505092959194509250565b6000610d3b8383610ded565b905092915050565b610d4c81611223565b82525050565b6000610d5d826111c2565b610d6781856111e5565b935083602082028501610d79856111b2565b8060005b85811015610db55784840389528151610d968582610d2f565b9450610da1836111d8565b925060208a01995050600181019050610d7d565b50829750879550505050505092915050565b610dd081611235565b82525050565b610de7610de282611235565b6112b8565b82525050565b6000610df8826111cd565b610e0281856111f6565b9350610e12818560208601611285565b610e1b816112c4565b840191505092915050565b6000610e31826111cd565b610e3b8185611207565b9350610e4b818560208601611285565b80840191505092915050565b6000610e64601683611212565b91507f5265717569726520636f7272656374206c656e677468000000000000000000006000830152602082019050919050565b6000610ea4601b83611212565b91507f5369676e61747572652076657273696f6e206e6f74206d6174636800000000006000830152602082019050919050565b6000610ee4603483611212565b91507f5472616e7366657248656c7065723a3a736166655472616e736665724554483a60008301527f20455448207472616e73666572206661696c65640000000000000000000000006020830152604082019050919050565b6000610f4a600d83611212565b91507f766572696679206661696c6564000000000000000000000000000000000000006000830152602082019050919050565b610f8681611269565b82525050565b6000610f988284610e26565b915081905092915050565b6000610faf8285610e26565b9150610fbb8284610dd6565b6020820191508190509392505050565b6000602082019050610fe06000830184610d43565b92915050565b600060208201905081810360008301526110008184610d52565b905092915050565b600060808201905061101d6000830187610dc7565b61102a6020830186610f7d565b6110376040830185610dc7565b6110446060830184610dc7565b95945050505050565b6000602082019050818103600083015261106681610e57565b9050919050565b6000602082019050818103600083015261108681610e97565b9050919050565b600060208201905081810360008301526110a681610ed7565b9050919050565b600060208201905081810360008301526110c681610f3d565b9050919050565b6000604051905081810181811067ffffffffffffffff821117156110f4576110f36112c2565b5b8060405250919050565b600067ffffffffffffffff821115611119576111186112c2565b5b602082029050602081019050919050565b600067ffffffffffffffff821115611145576111446112c2565b5b602082029050602081019050919050565b600067ffffffffffffffff821115611171576111706112c2565b5b602082029050602081019050919050565b600067ffffffffffffffff82111561119d5761119c6112c2565b5b601f19601f8301169050602081019050919050565b6000819050602082019050919050565b600081519050919050565b600081519050919050565b6000602082019050919050565b600082825260208201905092915050565b600082825260208201905092915050565b600081905092915050565b600082825260208201905092915050565b600061122e8261123f565b9050919050565b6000819050919050565b600073ffffffffffffffffffffffffffffffffffffffff82169050919050565b6000819050919050565b600060ff82169050919050565b82818337600083830152505050565b60005b838110156112a3578082015181840152602081019050611288565b838111156112b2576000848401525b50505050565b6000819050919050565bfe5b6000601f19601f8301169050919050565b6112de81611223565b81146112e957600080fd5b50565b6112f581611235565b811461130057600080fd5b50565b61130c8161125f565b811461131757600080fd5b50565b61132381611269565b811461132e57600080fd5b5056fea2646970667358221220f53faf79a479df1dc6ec90432ac11ca96dd96ca19417fd5085f3ab95d9026f6b64736f6c63430007060033",
  "devdoc": {
    "details": "A super simple ERC20 implementation!",
    "kind": "dev",
    "methods": {
      "setAbiterList(bytes[],bytes32,bytes[],address[])": {
        "params": {
          "_pubKeyList": "Abiter List"
        }
      }
    },
    "title": "ERC20",
    "version": 1
  },
  "userdoc": {
    "kind": "user",
    "methods": {},
    "version": 1
  },
  "storageLayout": {
    "storage": [
      {
        "astId": 6,
        "contract": "contracts/EOP.sol:EOP",
        "label": "owner",
        "offset": 0,
        "slot": "0",
        "type": "t_address"
      },
      {
        "astId": 9,
        "contract": "contracts/EOP.sol:EOP",
        "label": "pubKeyList",
        "offset": 0,
        "slot": "1",
        "type": "t_array(t_bytes_storage)dyn_storage"
      }
    ],
    "types": {
      "t_address": {
        "encoding": "inplace",
        "label": "address",
        "numberOfBytes": "20"
      },
      "t_array(t_bytes_storage)dyn_storage": {
        "base": "t_bytes_storage",
        "encoding": "dynamic_array",
        "label": "bytes[]",
        "numberOfBytes": "32"
      },
      "t_bytes_storage": {
        "encoding": "bytes",
        "label": "bytes",
        "numberOfBytes": "32"
      }
    }
  }
}