{
  "address": "0xD4bc4F3499189453EDe6F99b5eA3a9D94320F19a",
  "abi": [
    {
      "inputs": [],
      "stateMutability": "nonpayable",
      "type": "constructor"
    },
    {
      "inputs": [],
      "name": "getAbiterList",
      "outputs": [
        {
          "internalType": "bytes[]",
          "name": "",
          "type": "bytes[]"
        }
      ],
      "stateMutability": "view",
      "type": "function"
    },
    {
      "inputs": [],
      "name": "owner",
      "outputs": [
        {
          "internalType": "address",
          "name": "",
          "type": "address"
        }
      ],
      "stateMutability": "view",
      "type": "function"
    },
    {
      "inputs": [
        {
          "internalType": "bytes32",
          "name": "hash",
          "type": "bytes32"
        },
        {
          "internalType": "bytes",
          "name": "sig",
          "type": "bytes"
        }
      ],
      "name": "recoverSigner",
      "outputs": [
        {
          "internalType": "address",
          "name": "",
          "type": "address"
        }
      ],
      "stateMutability": "pure",
      "type": "function"
    },
    {
      "inputs": [
        {
          "internalType": "bytes32",
          "name": "h",
          "type": "bytes32"
        },
        {
          "internalType": "uint8",
          "name": "v",
          "type": "uint8"
        },
        {
          "internalType": "bytes32",
          "name": "r",
          "type": "bytes32"
        },
        {
          "internalType": "bytes32",
          "name": "s",
          "type": "bytes32"
        }
      ],
      "name": "recoverSigner2",
      "outputs": [
        {
          "internalType": "address",
          "name": "",
          "type": "address"
        }
      ],
      "stateMutability": "pure",
      "type": "function"
    },
    {
      "inputs": [
        {
          "internalType": "bytes[]",
          "name": "_pubKeyList",
          "type": "bytes[]"
        },
        {
          "internalType": "bytes32",
          "name": "hash",
          "type": "bytes32"
        },
        {
          "internalType": "bytes[]",
          "name": "sig",
          "type": "bytes[]"
        },
        {
          "internalType": "address[]",
          "name": "signer",
          "type": "address[]"
        }
      ],
      "name": "setAbiterList",
      "outputs": [],
      "stateMutability": "nonpayable",
      "type": "function"
    },
    {
      "inputs": [
        {
          "internalType": "bytes32",
          "name": "hash",
          "type": "bytes32"
        },
        {
          "internalType": "bytes",
          "name": "signature",
          "type": "bytes"
        },
        {
          "internalType": "address",
          "name": "signer",
          "type": "address"
        }
      ],
      "name": "verifySignature",
      "outputs": [
        {
          "internalType": "bool",
          "name": "",
          "type": "bool"
        }
      ],
      "stateMutability": "pure",
      "type": "function"
    }
  ],
  "transactionHash": "0x15e634d9353fc6f45fb6515063c4394ec6e1c1af35cae528349cc79a7e4bf14f",
  "args": [],
  "solcInputHash": "8f33e851e36a2eb3abecd9d4c9645677",
  "bytecode": "0x608060405234801561001057600080fd5b50336000806101000a81548173ffffffffffffffffffffffffffffffffffffffff021916908373ffffffffffffffffffffffffffffffffffffffff1602179055506111c6806100606000396000f3fe608060405234801561001057600080fd5b50600436106100625760003560e01c806331cd4199146100675780635fa211ff146100975780638da5cb5b146100b357806397aba7f9146100d1578063bdb33d4814610101578063f71d7a3d14610131575b600080fd5b610081600480360381019061007c9190610b78565b61014f565b60405161008e9190610ead565b60405180910390f35b6100b160048036038101906100ac9190610a79565b610197565b005b6100bb6102c7565b6040516100c89190610e70565b60405180910390f35b6100eb60048036038101906100e69190610b24565b6102eb565b6040516100f89190610e70565b60405180910390f35b61011b60048036038101906101169190610bdf565b6103cc565b6040516101289190610e70565b60405180910390f35b610139610495565b6040516101469190610e8b565b60405180910390f35b60008061015c85856102eb565b90508273ffffffffffffffffffffffffffffffffffffffff168173ffffffffffffffffffffffffffffffffffffffff16149150509392505050565b6101d56040518060400160405280601181526020017f78786c207365744162697465724c69737400000000000000000000000000000081525061057e565b600060019050600080600192505b60208360ff1610156102545761022686868560ff168151811061020257fe5b6020026020010151868660ff168151811061021957fe5b602002602001015161014f565b905080156102375781806001019250505b60198260ff161061024757610254565b82806001019350506101e3565b6102608260ff1661067c565b60198260ff1610156102a7576040517f08c379a000000000000000000000000000000000000000000000000000000000815260040161029e90610f4d565b60405180910390fd5b86600190805190602001906102bd92919061073e565b5050505050505050565b60008054906101000a900473ffffffffffffffffffffffffffffffffffffffff1681565b60006041825114610331576040517f08c379a000000000000000000000000000000000000000000000000000000000815260040161032890610f0d565b60405180910390fd5b60008060006020850151925060408501519150606085015160001a9050601b8160ff16101561036157601b810190505b601b8160ff1614806103765750601c8160ff16145b6103b5576040517f08c379a00000000000000000000000000000000000000000000000000000000081526004016103ac90610f2d565b60405180910390fd5b6103c1868285856103cc565b935050505092915050565b6000806040518060400160405280601c81526020017f19457468657265756d205369676e6564204d6573736167653a0a33320000000081525090506000818760405160200161041c929190610e48565b6040516020818303038152906040528051906020012090506000600182888888604051600081526020016040526040516104599493929190610ec8565b6020604051602081039080840390855afa15801561047b573d6000803e3d6000fd5b505050602060405103519050809350505050949350505050565b60606001805480602002602001604051908101604052809291908181526020016000905b82821015610575578382906000526020600020018054600181600116156101000203166002900480601f0160208091040260200160405190810160405280929190818152602001828054600181600116156101000203166002900480156105615780601f1061053657610100808354040283529160200191610561565b820191906000526020600020905b81548152906001019060200180831161054457829003601f168201915b5050505050815260200190600101906104b9565b50505050905090565b610679816040516024018080602001828103825283818151815260200191508051906020019080838360005b838110156105c55780820151818401526020810190506105aa565b50505050905090810190601f1680156105f25780820380516001836020036101000a031916815260200191505b50925050506040516020818303038152906040527f41304fac000000000000000000000000000000000000000000000000000000007bffffffffffffffffffffffffffffffffffffffffffffffffffffffff19166020820180517bffffffffffffffffffffffffffffffffffffffffffffffffffffffff8381831617835250505050610715565b50565b61071281604051602401808281526020019150506040516020818303038152906040527ff5b1bba9000000000000000000000000000000000000000000000000000000007bffffffffffffffffffffffffffffffffffffffffffffffffffffffff19166020820180517bffffffffffffffffffffffffffffffffffffffffffffffffffffffff8381831617835250505050610715565b50565b60008151905060006a636f6e736f6c652e6c6f679050602083016000808483855afa5050505050565b82805482825590600052602060002090810192821561078d579160200282015b8281111561078c57825182908051906020019061077c92919061079e565b509160200191906001019061075e565b5b50905061079a919061082c565b5090565b828054600181600116156101000203166002900490600052602060002090601f0160209004810192826107d4576000855561081b565b82601f106107ed57805160ff191683800117855561081b565b8280016001018555821561081b579182015b8281111561081a5782518255916020019190600101906107ff565b5b5090506108289190610850565b5090565b5b8082111561084c5760008181610843919061086d565b5060010161082d565b5090565b5b80821115610869576000816000905550600101610851565b5090565b50805460018160011615610100020316600290046000825580601f1061089357506108b2565b601f0160209004906000526020600020908101906108b19190610850565b5b50565b60006108c86108c384610f9e565b610f6d565b905080838252602082019050828560208602820111156108e757600080fd5b60005b8581101561091757816108fd88826109bc565b8452602084019350602083019250506001810190506108ea565b5050509392505050565b600061093461092f84610fca565b610f6d565b9050808382526020820190508260005b85811015610974578135850161095a8882610a3a565b845260208401935060208301925050600181019050610944565b5050509392505050565b600061099161098c84610ff6565b610f6d565b9050828152602081018484840111156109a957600080fd5b6109b48482856110ec565b509392505050565b6000813590506109cb8161114b565b92915050565b600082601f8301126109e257600080fd5b81356109f28482602086016108b5565b91505092915050565b600082601f830112610a0c57600080fd5b8135610a1c848260208601610921565b91505092915050565b600081359050610a3481611162565b92915050565b600082601f830112610a4b57600080fd5b8135610a5b84826020860161097e565b91505092915050565b600081359050610a7381611179565b92915050565b60008060008060808587031215610a8f57600080fd5b600085013567ffffffffffffffff811115610aa957600080fd5b610ab5878288016109fb565b9450506020610ac687828801610a25565b935050604085013567ffffffffffffffff811115610ae357600080fd5b610aef878288016109fb565b925050606085013567ffffffffffffffff811115610b0c57600080fd5b610b18878288016109d1565b91505092959194509250565b60008060408385031215610b3757600080fd5b6000610b4585828601610a25565b925050602083013567ffffffffffffffff811115610b6257600080fd5b610b6e85828601610a3a565b9150509250929050565b600080600060608486031215610b8d57600080fd5b6000610b9b86828701610a25565b935050602084013567ffffffffffffffff811115610bb857600080fd5b610bc486828701610a3a565b9250506040610bd5868287016109bc565b9150509250925092565b60008060008060808587031215610bf557600080fd5b6000610c0387828801610a25565b9450506020610c1487828801610a64565b9350506040610c2587828801610a25565b9250506060610c3687828801610a25565b91505092959194509250565b6000610c4e8383610d0f565b905092915050565b610c5f81611097565b82525050565b6000610c7082611036565b610c7a8185611059565b935083602082028501610c8c85611026565b8060005b85811015610cc85784840389528151610ca98582610c42565b9450610cb48361104c565b925060208a01995050600181019050610c90565b50829750879550505050505092915050565b610ce3816110a9565b82525050565b610cf2816110b5565b82525050565b610d09610d04826110b5565b61112e565b82525050565b6000610d1a82611041565b610d24818561106a565b9350610d348185602086016110fb565b610d3d8161113a565b840191505092915050565b6000610d5382611041565b610d5d818561107b565b9350610d6d8185602086016110fb565b80840191505092915050565b6000610d86601683611086565b91507f5265717569726520636f7272656374206c656e677468000000000000000000006000830152602082019050919050565b6000610dc6601b83611086565b91507f5369676e61747572652076657273696f6e206e6f74206d6174636800000000006000830152602082019050919050565b6000610e06600d83611086565b91507f766572696679206661696c6564000000000000000000000000000000000000006000830152602082019050919050565b610e42816110df565b82525050565b6000610e548285610d48565b9150610e608284610cf8565b6020820191508190509392505050565b6000602082019050610e856000830184610c56565b92915050565b60006020820190508181036000830152610ea58184610c65565b905092915050565b6000602082019050610ec26000830184610cda565b92915050565b6000608082019050610edd6000830187610ce9565b610eea6020830186610e39565b610ef76040830185610ce9565b610f046060830184610ce9565b95945050505050565b60006020820190508181036000830152610f2681610d79565b9050919050565b60006020820190508181036000830152610f4681610db9565b9050919050565b60006020820190508181036000830152610f6681610df9565b9050919050565b6000604051905081810181811067ffffffffffffffff82111715610f9457610f93611138565b5b8060405250919050565b600067ffffffffffffffff821115610fb957610fb8611138565b5b602082029050602081019050919050565b600067ffffffffffffffff821115610fe557610fe4611138565b5b602082029050602081019050919050565b600067ffffffffffffffff82111561101157611010611138565b5b601f19601f8301169050602081019050919050565b6000819050602082019050919050565b600081519050919050565b600081519050919050565b6000602082019050919050565b600082825260208201905092915050565b600082825260208201905092915050565b600081905092915050565b600082825260208201905092915050565b60006110a2826110bf565b9050919050565b60008115159050919050565b6000819050919050565b600073ffffffffffffffffffffffffffffffffffffffff82169050919050565b600060ff82169050919050565b82818337600083830152505050565b60005b838110156111195780820151818401526020810190506110fe565b83811115611128576000848401525b50505050565b6000819050919050565bfe5b6000601f19601f8301169050919050565b61115481611097565b811461115f57600080fd5b50565b61116b816110b5565b811461117657600080fd5b50565b611182816110df565b811461118d57600080fd5b5056fea26469706673582212202e05818fd35dda1bd82914501716b8114c6fb4e8b1b885e3d4109cd64fc925b764736f6c63430007060033",
  "devdoc": {
    "details": "A super simple ERC20 implementation!",
    "kind": "dev",
    "methods": {
      "recoverSigner(bytes32,bytes)": {
        "details": "Recover signer address from a message by using their signature",
        "params": {
          "hash": "bytes32 message, the hash is the signed message. What is recovered is the signer address.",
          "sig": "bytes signature, the signature is generated using web3.eth.sign(). Inclusive \"0x...\""
        }
      },
      "setAbiterList(bytes[],bytes32,bytes[],address[])": {
        "params": {
          "_pubKeyList": "Abiter List"
        }
      },
      "verifySignature(bytes32,bytes,address)": {
        "details": "verify Signature",
        "params": {
          "hash": "bytes32 message, the hash is the signed message. What is recovered is the signer address.",
          "signature": "bytes signature, the signature is generated using web3.eth.sign(). Inclusive \"0x...\"",
          "signer": "signer address"
        }
      }
    },
    "title": "ERC20",
    "version": 1
  },
  "userdoc": {
    "kind": "user",
    "methods": {},
    "version": 1
  },
  "storageLayout": {
    "storage": [
      {
        "astId": 6,
        "contract": "contracts/EOP.sol:EOP",
        "label": "owner",
        "offset": 0,
        "slot": "0",
        "type": "t_address"
      },
      {
        "astId": 9,
        "contract": "contracts/EOP.sol:EOP",
        "label": "pubKeyList",
        "offset": 0,
        "slot": "1",
        "type": "t_array(t_bytes_storage)dyn_storage"
      }
    ],
    "types": {
      "t_address": {
        "encoding": "inplace",
        "label": "address",
        "numberOfBytes": "20"
      },
      "t_array(t_bytes_storage)dyn_storage": {
        "base": "t_bytes_storage",
        "encoding": "dynamic_array",
        "label": "bytes[]",
        "numberOfBytes": "32"
      },
      "t_bytes_storage": {
        "encoding": "bytes",
        "label": "bytes",
        "numberOfBytes": "32"
      }
    }
  }
}